{
  "_format": "hh-sol-artifact-1",
  "contractName": "DigitalWill",
  "sourceName": "contracts/DigitalWill.sol",
  "abi": [
    {
      "anonymous": false,
      "inputs": [
        {
          "indexed": true,
          "internalType": "address",
          "name": "user",
          "type": "address"
        }
      ],
      "name": "Pinged",
      "type": "event"
    },
    {
      "anonymous": false,
      "inputs": [
        {
          "indexed": true,
          "internalType": "address",
          "name": "user",
          "type": "address"
        },
        {
          "indexed": false,
          "internalType": "uint256",
          "name": "balance",
          "type": "uint256"
        }
      ],
      "name": "RevertedToOwner",
      "type": "event"
    },
    {
      "anonymous": false,
      "inputs": [
        {
          "indexed": true,
          "internalType": "address",
          "name": "user",
          "type": "address"
        },
        {
          "indexed": true,
          "internalType": "address[]",
          "name": "recipients",
          "type": "address[]"
        },
        {
          "indexed": false,
          "internalType": "uint256",
          "name": "balance",
          "type": "uint256"
        }
      ],
      "name": "UserAdded",
      "type": "event"
    },
    {
      "anonymous": false,
      "inputs": [
        {
          "indexed": true,
          "internalType": "address",
          "name": "user",
          "type": "address"
        }
      ],
      "name": "UserRemoved",
      "type": "event"
    },
    {
      "anonymous": false,
      "inputs": [
        {
          "indexed": true,
          "internalType": "address",
          "name": "parent",
          "type": "address"
        },
        {
          "indexed": true,
          "internalType": "address",
          "name": "recipient",
          "type": "address"
        },
        {
          "indexed": false,
          "internalType": "uint256",
          "name": "balance",
          "type": "uint256"
        }
      ],
      "name": "Withdrawn",
      "type": "event"
    },
    {
      "inputs": [
        {
          "internalType": "address[]",
          "name": "_recipients",
          "type": "address[]"
        },
        {
          "internalType": "uint256",
          "name": "_customTime",
          "type": "uint256"
        }
      ],
      "name": "adduser",
      "outputs": [],
      "stateMutability": "payable",
      "type": "function"
    },
    {
      "inputs": [
        {
          "internalType": "address",
          "name": "_recipient",
          "type": "address"
        }
      ],
      "name": "getRecipientBalance",
      "outputs": [
        {
          "internalType": "uint256",
          "name": "",
          "type": "uint256"
        }
      ],
      "stateMutability": "view",
      "type": "function"
    },
    {
      "inputs": [
        {
          "internalType": "address",
          "name": "_user",
          "type": "address"
        }
      ],
      "name": "getUserInfo",
      "outputs": [
        {
          "components": [
            {
              "internalType": "address",
              "name": "user",
              "type": "address"
            },
            {
              "internalType": "address[]",
              "name": "recipients",
              "type": "address[]"
            },
            {
              "internalType": "uint256",
              "name": "lastAction",
              "type": "uint256"
            },
            {
              "internalType": "uint256",
              "name": "balance",
              "type": "uint256"
            },
            {
              "internalType": "uint256",
              "name": "customTime",
              "type": "uint256"
            }
          ],
          "internalType": "struct DigitalWill.UserInfo",
          "name": "",
          "type": "tuple"
        }
      ],
      "stateMutability": "view",
      "type": "function"
    },
    {
      "inputs": [
        {
          "internalType": "address",
          "name": "_user",
          "type": "address"
        },
        {
          "internalType": "address",
          "name": "_recipient",
          "type": "address"
        }
      ],
      "name": "isRecipientE",
      "outputs": [
        {
          "internalType": "bool",
          "name": "",
          "type": "bool"
        }
      ],
      "stateMutability": "view",
      "type": "function"
    },
    {
      "inputs": [
        {
          "internalType": "address",
          "name": "_user",
          "type": "address"
        }
      ],
      "name": "isUser",
      "outputs": [
        {
          "internalType": "bool",
          "name": "",
          "type": "bool"
        }
      ],
      "stateMutability": "view",
      "type": "function"
    },
    {
      "inputs": [],
      "name": "ping",
      "outputs": [],
      "stateMutability": "nonpayable",
      "type": "function"
    },
    {
      "inputs": [
        {
          "internalType": "address",
          "name": "",
          "type": "address"
        }
      ],
      "name": "recipientBalances",
      "outputs": [
        {
          "internalType": "uint256",
          "name": "",
          "type": "uint256"
        }
      ],
      "stateMutability": "view",
      "type": "function"
    },
    {
      "inputs": [],
      "name": "revertToOwner",
      "outputs": [],
      "stateMutability": "nonpayable",
      "type": "function"
    },
    {
      "inputs": [
        {
          "internalType": "address",
          "name": "",
          "type": "address"
        }
      ],
      "name": "users",
      "outputs": [
        {
          "internalType": "address",
          "name": "user",
          "type": "address"
        },
        {
          "internalType": "uint256",
          "name": "lastAction",
          "type": "uint256"
        },
        {
          "internalType": "uint256",
          "name": "balance",
          "type": "uint256"
        },
        {
          "internalType": "uint256",
          "name": "customTime",
          "type": "uint256"
        }
      ],
      "stateMutability": "view",
      "type": "function"
    },
    {
      "inputs": [
        {
          "internalType": "address",
          "name": "parent",
          "type": "address"
        }
      ],
      "name": "withdraw",
      "outputs": [],
      "stateMutability": "nonpayable",
      "type": "function"
    }
  ],
  "bytecode": "0x608060405234801561001057600080fd5b506122c7806100206000396000f3fe6080604052600436106100915760003560e01c80635c36b186116100595780635c36b1861461018d5780636386c1c7146101a45780638dff5c5f146101e1578063a87430ba1461021e578063bd87a0f41461025e57610091565b80632b6627b11461009657806331f5a1b1146100d35780633b009d81146100ea5780634209fff11461012757806351cff8d914610164575b600080fd5b3480156100a257600080fd5b506100bd60048036038101906100b891906116ac565b61027a565b6040516100ca91906116f2565b60405180910390f35b3480156100df57600080fd5b506100e8610292565b005b3480156100f657600080fd5b50610111600480360381019061010c919061170d565b610591565b60405161011e9190611768565b60405180910390f35b34801561013357600080fd5b5061014e600480360381019061014991906116ac565b6106be565b60405161015b9190611768565b60405180910390f35b34801561017057600080fd5b5061018b600480360381019061018691906116ac565b610757565b005b34801561019957600080fd5b506101a2610bcd565b005b3480156101b057600080fd5b506101cb60048036038101906101c691906116ac565b610d27565b6040516101d891906118c6565b60405180910390f35b3480156101ed57600080fd5b50610208600480360381019061020391906116ac565b610e81565b60405161021591906116f2565b60405180910390f35b34801561022a57600080fd5b50610245600480360381019061024091906116ac565b610eca565b60405161025594939291906118f7565b60405180910390f35b61027860048036038101906102739190611ac1565b610f1a565b005b60016020528060005260406000206000915090505481565b6000803373ffffffffffffffffffffffffffffffffffffffff1673ffffffffffffffffffffffffffffffffffffffff16815260200190815260200160002060000160009054906101000a900473ffffffffffffffffffffffffffffffffffffffff1673ffffffffffffffffffffffffffffffffffffffff163373ffffffffffffffffffffffffffffffffffffffff1614610361576040517f08c379a000000000000000000000000000000000000000000000000000000000815260040161035890611ba0565b60405180910390fd5b60008060003373ffffffffffffffffffffffffffffffffffffffff1673ffffffffffffffffffffffffffffffffffffffff16815260200190815260200160002060000160009054906101000a900473ffffffffffffffffffffffffffffffffffffffff1673ffffffffffffffffffffffffffffffffffffffff166000803373ffffffffffffffffffffffffffffffffffffffff1673ffffffffffffffffffffffffffffffffffffffff1681526020019081526020016000206003015460405161042990611bf1565b60006040518083038185875af1925050503d8060008114610466576040519150601f19603f3d011682016040523d82523d6000602084013e61046b565b606091505b50509050806104af576040517f08c379a00000000000000000000000000000000000000000000000000000000081526004016104a690611c52565b60405180910390fd5b3373ffffffffffffffffffffffffffffffffffffffff167f9ce779ece89177fcb4abe2c8b308b3585cbee17ca0c5a3d75d1276be0262388b6000803373ffffffffffffffffffffffffffffffffffffffff1673ffffffffffffffffffffffffffffffffffffffff1681526020019081526020016000206003015460405161053691906116f2565b60405180910390a260008060003373ffffffffffffffffffffffffffffffffffffffff1673ffffffffffffffffffffffffffffffffffffffff1681526020019081526020016000206003018190555061058e336112a6565b50565b600080600090505b6000808573ffffffffffffffffffffffffffffffffffffffff1673ffffffffffffffffffffffffffffffffffffffff168152602001908152602001600020600101805490508110156106b2578273ffffffffffffffffffffffffffffffffffffffff166000808673ffffffffffffffffffffffffffffffffffffffff1673ffffffffffffffffffffffffffffffffffffffff168152602001908152602001600020600101828154811061064f5761064e611c72565b5b9060005260206000200160009054906101000a900473ffffffffffffffffffffffffffffffffffffffff1673ffffffffffffffffffffffffffffffffffffffff160361069f5760019150506106b8565b80806106aa90611cd0565b915050610599565b50600090505b92915050565b60008173ffffffffffffffffffffffffffffffffffffffff166000808473ffffffffffffffffffffffffffffffffffffffff1673ffffffffffffffffffffffffffffffffffffffff16815260200190815260200160002060000160009054906101000a900473ffffffffffffffffffffffffffffffffffffffff1673ffffffffffffffffffffffffffffffffffffffff16149050919050565b600073ffffffffffffffffffffffffffffffffffffffff166000808373ffffffffffffffffffffffffffffffffffffffff1673ffffffffffffffffffffffffffffffffffffffff16815260200190815260200160002060000160009054906101000a900473ffffffffffffffffffffffffffffffffffffffff1673ffffffffffffffffffffffffffffffffffffffff1603610827576040517f08c379a000000000000000000000000000000000000000000000000000000000815260040161081e90611d64565b60405180910390fd5b6108318133611400565b610870576040517f08c379a000000000000000000000000000000000000000000000000000000000815260040161086790611dd0565b60405180910390fd5b6000808273ffffffffffffffffffffffffffffffffffffffff1673ffffffffffffffffffffffffffffffffffffffff168152602001908152602001600020600401546000808373ffffffffffffffffffffffffffffffffffffffff1673ffffffffffffffffffffffffffffffffffffffff16815260200190815260200160002060020154426108ff9190611df0565b1015610940576040517f08c379a000000000000000000000000000000000000000000000000000000000815260040161093790611e70565b60405180910390fd5b6000600160003373ffffffffffffffffffffffffffffffffffffffff1673ffffffffffffffffffffffffffffffffffffffff168152602001908152602001600020549050600081116109c7576040517f08c379a00000000000000000000000000000000000000000000000000000000081526004016109be90611edc565b60405180910390fd5b60003373ffffffffffffffffffffffffffffffffffffffff16826040516109ed90611bf1565b60006040518083038185875af1925050503d8060008114610a2a576040519150601f19603f3d011682016040523d82523d6000602084013e610a2f565b606091505b5050905080610a73576040517f08c379a0000000000000000000000000000000000000000000000000000000008152600401610a6a90611c52565b60405180910390fd5b3373ffffffffffffffffffffffffffffffffffffffff168373ffffffffffffffffffffffffffffffffffffffff167fd1c19fbcd4551a5edfb66d43d2e337c04837afda3482b42bdf569a8fccdae5fb84604051610ad091906116f2565b60405180910390a3816000808573ffffffffffffffffffffffffffffffffffffffff1673ffffffffffffffffffffffffffffffffffffffff1681526020019081526020016000206003016000828254610b299190611df0565b925050819055506000600160003373ffffffffffffffffffffffffffffffffffffffff1673ffffffffffffffffffffffffffffffffffffffff1681526020019081526020016000208190555060008060008573ffffffffffffffffffffffffffffffffffffffff1673ffffffffffffffffffffffffffffffffffffffff1681526020019081526020016000206003015403610bc857610bc7836112a6565b5b505050565b6000803373ffffffffffffffffffffffffffffffffffffffff1673ffffffffffffffffffffffffffffffffffffffff16815260200190815260200160002060000160009054906101000a900473ffffffffffffffffffffffffffffffffffffffff1673ffffffffffffffffffffffffffffffffffffffff163373ffffffffffffffffffffffffffffffffffffffff1614610c9c576040517f08c379a0000000000000000000000000000000000000000000000000000000008152600401610c9390611f6e565b60405180910390fd5b426000803373ffffffffffffffffffffffffffffffffffffffff1673ffffffffffffffffffffffffffffffffffffffff168152602001908152602001600020600201819055503373ffffffffffffffffffffffffffffffffffffffff167fcd1f5876a7d71dd23dec305977c08069d94c421d8eccf041570b143e2312045d60405160405180910390a2565b610d2f61152d565b6000808373ffffffffffffffffffffffffffffffffffffffff1673ffffffffffffffffffffffffffffffffffffffff1681526020019081526020016000206040518060a00160405290816000820160009054906101000a900473ffffffffffffffffffffffffffffffffffffffff1673ffffffffffffffffffffffffffffffffffffffff1673ffffffffffffffffffffffffffffffffffffffff16815260200160018201805480602002602001604051908101604052809291908181526020018280548015610e5357602002820191906000526020600020905b8160009054906101000a900473ffffffffffffffffffffffffffffffffffffffff1673ffffffffffffffffffffffffffffffffffffffff1681526020019060010190808311610e09575b5050505050815260200160028201548152602001600382015481526020016004820154815250509050919050565b6000600160008373ffffffffffffffffffffffffffffffffffffffff1673ffffffffffffffffffffffffffffffffffffffff168152602001908152602001600020549050919050565b60006020528060005260406000206000915090508060000160009054906101000a900473ffffffffffffffffffffffffffffffffffffffff16908060020154908060030154908060040154905084565b60003411610f5d576040517f08c379a0000000000000000000000000000000000000000000000000000000008152600401610f5490612000565b60405180910390fd5b600073ffffffffffffffffffffffffffffffffffffffff163373ffffffffffffffffffffffffffffffffffffffff1603610fcc576040517f08c379a0000000000000000000000000000000000000000000000000000000008152600401610fc39061206c565b60405180910390fd5b600073ffffffffffffffffffffffffffffffffffffffff166000803373ffffffffffffffffffffffffffffffffffffffff1673ffffffffffffffffffffffffffffffffffffffff16815260200190815260200160002060000160009054906101000a900473ffffffffffffffffffffffffffffffffffffffff1673ffffffffffffffffffffffffffffffffffffffff161461109c576040517f08c379a0000000000000000000000000000000000000000000000000000000008152600401611093906120d8565b60405180910390fd5b6040518060a001604052803373ffffffffffffffffffffffffffffffffffffffff168152602001838152602001428152602001348152602001828152506000803373ffffffffffffffffffffffffffffffffffffffff1673ffffffffffffffffffffffffffffffffffffffff16815260200190815260200160002060008201518160000160006101000a81548173ffffffffffffffffffffffffffffffffffffffff021916908373ffffffffffffffffffffffffffffffffffffffff160217905550602082015181600101908051906020019061117a929190611572565b50604082015181600201556060820151816003015560808201518160040155905050600060018351036111af573490506111bf565b8251346111bc9190612127565b90505b60005b835181101561123c5781600160008684815181106111e3576111e2611c72565b5b602002602001015173ffffffffffffffffffffffffffffffffffffffff1673ffffffffffffffffffffffffffffffffffffffff16815260200190815260200160002081905550808061123490611cd0565b9150506111c2565b508260405161124b91906121e8565b60405180910390203373ffffffffffffffffffffffffffffffffffffffff167f862c20e3c2a8024eb60461e4e659d906dd242bbcbad17ed3c878026fd2c5788f3460405161129991906116f2565b60405180910390a3505050565b60008060008373ffffffffffffffffffffffffffffffffffffffff1673ffffffffffffffffffffffffffffffffffffffff168152602001908152602001600020600301541461132a576040517f08c379a000000000000000000000000000000000000000000000000000000000815260040161132190612271565b60405180910390fd5b8073ffffffffffffffffffffffffffffffffffffffff167fe9dce8c992623ce791725b21e857e33248d1f190a25b5168313420eebdaae99d60405160405180910390a26000808273ffffffffffffffffffffffffffffffffffffffff1673ffffffffffffffffffffffffffffffffffffffff168152602001908152602001600020600080820160006101000a81549073ffffffffffffffffffffffffffffffffffffffff02191690556001820160006113e391906115fc565b600282016000905560038201600090556004820160009055505050565b600080600090505b6000808573ffffffffffffffffffffffffffffffffffffffff1673ffffffffffffffffffffffffffffffffffffffff16815260200190815260200160002060010180549050811015611521578273ffffffffffffffffffffffffffffffffffffffff166000808673ffffffffffffffffffffffffffffffffffffffff1673ffffffffffffffffffffffffffffffffffffffff16815260200190815260200160002060010182815481106114be576114bd611c72565b5b9060005260206000200160009054906101000a900473ffffffffffffffffffffffffffffffffffffffff1673ffffffffffffffffffffffffffffffffffffffff160361150e576001915050611527565b808061151990611cd0565b915050611408565b50600090505b92915050565b6040518060a00160405280600073ffffffffffffffffffffffffffffffffffffffff168152602001606081526020016000815260200160008152602001600081525090565b8280548282559060005260206000209081019282156115eb579160200282015b828111156115ea5782518260006101000a81548173ffffffffffffffffffffffffffffffffffffffff021916908373ffffffffffffffffffffffffffffffffffffffff16021790555091602001919060010190611592565b5b5090506115f8919061161d565b5090565b508054600082559060005260206000209081019061161a919061161d565b50565b5b8082111561163657600081600090555060010161161e565b5090565b6000604051905090565b600080fd5b600080fd5b600073ffffffffffffffffffffffffffffffffffffffff82169050919050565b60006116798261164e565b9050919050565b6116898161166e565b811461169457600080fd5b50565b6000813590506116a681611680565b92915050565b6000602082840312156116c2576116c1611644565b5b60006116d084828501611697565b91505092915050565b6000819050919050565b6116ec816116d9565b82525050565b600060208201905061170760008301846116e3565b92915050565b6000806040838503121561172457611723611644565b5b600061173285828601611697565b925050602061174385828601611697565b9150509250929050565b60008115159050919050565b6117628161174d565b82525050565b600060208201905061177d6000830184611759565b92915050565b61178c8161166e565b82525050565b600081519050919050565b600082825260208201905092915050565b6000819050602082019050919050565b60006117ca8383611783565b60208301905092915050565b6000602082019050919050565b60006117ee82611792565b6117f8818561179d565b9350611803836117ae565b8060005b8381101561183457815161181b88826117be565b9750611826836117d6565b925050600181019050611807565b5085935050505092915050565b61184a816116d9565b82525050565b600060a0830160008301516118686000860182611783565b506020830151848203602086015261188082826117e3565b91505060408301516118956040860182611841565b5060608301516118a86060860182611841565b5060808301516118bb6080860182611841565b508091505092915050565b600060208201905081810360008301526118e08184611850565b905092915050565b6118f18161166e565b82525050565b600060808201905061190c60008301876118e8565b61191960208301866116e3565b61192660408301856116e3565b61193360608301846116e3565b95945050505050565b600080fd5b6000601f19601f8301169050919050565b7f4e487b7100000000000000000000000000000000000000000000000000000000600052604160045260246000fd5b61198a82611941565b810181811067ffffffffffffffff821117156119a9576119a8611952565b5b80604052505050565b60006119bc61163a565b90506119c88282611981565b919050565b600067ffffffffffffffff8211156119e8576119e7611952565b5b602082029050602081019050919050565b600080fd5b6000611a11611a0c846119cd565b6119b2565b90508083825260208201905060208402830185811115611a3457611a336119f9565b5b835b81811015611a5d5780611a498882611697565b845260208401935050602081019050611a36565b5050509392505050565b600082601f830112611a7c57611a7b61193c565b5b8135611a8c8482602086016119fe565b91505092915050565b611a9e816116d9565b8114611aa957600080fd5b50565b600081359050611abb81611a95565b92915050565b60008060408385031215611ad857611ad7611644565b5b600083013567ffffffffffffffff811115611af657611af5611649565b5b611b0285828601611a67565b9250506020611b1385828601611aac565b9150509250929050565b600082825260208201905092915050565b7f4f6e6c79206f776e65722063616e2063616c6c20746869732066756e6374696f60008201527f6e00000000000000000000000000000000000000000000000000000000000000602082015250565b6000611b8a602183611b1d565b9150611b9582611b2e565b604082019050919050565b60006020820190508181036000830152611bb981611b7d565b9050919050565b600081905092915050565b50565b6000611bdb600083611bc0565b9150611be682611bcb565b600082019050919050565b6000611bfc82611bce565b9150819050919050565b7f5472616e7366657220746f20726563697069656e74206661696c656400000000600082015250565b6000611c3c601c83611b1d565b9150611c4782611c06565b602082019050919050565b60006020820190508181036000830152611c6b81611c2f565b9050919050565b7f4e487b7100000000000000000000000000000000000000000000000000000000600052603260045260246000fd5b7f4e487b7100000000000000000000000000000000000000000000000000000000600052601160045260246000fd5b6000611cdb826116d9565b91507fffffffffffffffffffffffffffffffffffffffffffffffffffffffffffffffff8203611d0d57611d0c611ca1565b5b600182019050919050565b7f5573657220646f6573206e6f7420657869737400000000000000000000000000600082015250565b6000611d4e601383611b1d565b9150611d5982611d18565b602082019050919050565b60006020820190508181036000830152611d7d81611d41565b9050919050565b7f496e76616c696420726563697069656e74000000000000000000000000000000600082015250565b6000611dba601183611b1d565b9150611dc582611d84565b602082019050919050565b60006020820190508181036000830152611de981611dad565b9050919050565b6000611dfb826116d9565b9150611e06836116d9565b9250828203905081811115611e1e57611e1d611ca1565b5b92915050565b7f5769746864726177616c206e6f7420616c6c6f77656420796574000000000000600082015250565b6000611e5a601a83611b1d565b9150611e6582611e24565b602082019050919050565b60006020820190508181036000830152611e8981611e4d565b9050919050565b7f526563697069656e7420686173206e6f2062616c616e63650000000000000000600082015250565b6000611ec6601883611b1d565b9150611ed182611e90565b602082019050919050565b60006020820190508181036000830152611ef581611eb9565b9050919050565b7f4f6e6c792074686520757365722063616e2063616c6c20746869732066756e6360008201527f74696f6e00000000000000000000000000000000000000000000000000000000602082015250565b6000611f58602483611b1d565b9150611f6382611efc565b604082019050919050565b60006020820190508181036000830152611f8781611f4b565b9050919050565b7f596f75206d7573742073656e6420736f6d6520457468657220746f206465706f60008201527f7369742e00000000000000000000000000000000000000000000000000000000602082015250565b6000611fea602483611b1d565b9150611ff582611f8e565b604082019050919050565b6000602082019050818103600083015261201981611fdd565b9050919050565b7f43616e6e6f7420616464207a65726f2061646472657373000000000000000000600082015250565b6000612056601783611b1d565b915061206182612020565b602082019050919050565b6000602082019050818103600083015261208581612049565b9050919050565b7f5573657220616c72656164792065786973747300000000000000000000000000600082015250565b60006120c2601383611b1d565b91506120cd8261208c565b602082019050919050565b600060208201905081810360008301526120f1816120b5565b9050919050565b7f4e487b7100000000000000000000000000000000000000000000000000000000600052601260045260246000fd5b6000612132826116d9565b915061213d836116d9565b92508261214d5761214c6120f8565b5b828204905092915050565b600081905092915050565b61216c8161166e565b82525050565b600061217e8383612163565b60208301905092915050565b600061219582611792565b61219f8185612158565b93506121aa836117ae565b8060005b838110156121db5781516121c28882612172565b97506121cd836117d6565b9250506001810190506121ae565b5085935050505092915050565b60006121f4828461218a565b915081905092915050565b7f20557365722063616e27742062652072656d6f7665642062656361757365207560008201527f73657220686173206e6f742077697468647261776e2079657400000000000000602082015250565b600061225b603983611b1d565b9150612266826121ff565b604082019050919050565b6000602082019050818103600083015261228a8161224e565b905091905056fea264697066735822122094c82e083f2300439bd3343b88fd7c55956b165e6de35eb7ff8835688e66fb0064736f6c63430008130033",
  "linkReferences": {},
  "deployedLinkReferences": {}
}